{
  "_format": "hh-sol-artifact-1",
  "contractName": "MySkills",
  "sourceName": "contracts/MySkills.sol",
  "abi": [
    {
      "inputs": [],
      "stateMutability": "nonpayable",
      "type": "constructor"
    },
    {
      "anonymous": false,
      "inputs": [
        {
          "indexed": false,
          "internalType": "address",
          "name": "addr",
          "type": "address"
        },
        {
          "indexed": false,
          "internalType": "string",
          "name": "skill",
          "type": "string"
        },
        {
          "indexed": false,
          "internalType": "uint256",
          "name": "addIn",
          "type": "uint256"
        }
      ],
      "name": "UpdatedSkills",
      "type": "event"
    },
    {
      "inputs": [
        {
          "internalType": "address",
          "name": "addr",
          "type": "address"
        },
        {
          "internalType": "string",
          "name": "skill",
          "type": "string"
        },
        {
          "internalType": "uint256",
          "name": "addIn",
          "type": "uint256"
        }
      ],
      "name": "addSkill",
      "outputs": [],
      "stateMutability": "nonpayable",
      "type": "function"
    }
  ],
  "bytecode": "0x608060405234801561001057600080fd5b50336000806101000a81548173ffffffffffffffffffffffffffffffffffffffff021916908373ffffffffffffffffffffffffffffffffffffffff1602179055506105a8806100606000396000f3fe608060405234801561001057600080fd5b506004361061002b5760003560e01c806360ccb20414610030575b600080fd5b61004a60048036038101906100459190610287565b61004c565b005b600260008473ffffffffffffffffffffffffffffffffffffffff1673ffffffffffffffffffffffffffffffffffffffff1681526020019081526020016000208260405161009991906103b6565b908152602001604051809103902060009054906101000a900460ff16156100f5576040517f08c379a00000000000000000000000000000000000000000000000000000000081526004016100ec9061040b565b60405180910390fd5b80600160008573ffffffffffffffffffffffffffffffffffffffff1673ffffffffffffffffffffffffffffffffffffffff1681526020019081526020016000208360405161014391906103b6565b9081526020016040518091039020819055506001600260008573ffffffffffffffffffffffffffffffffffffffff1673ffffffffffffffffffffffffffffffffffffffff168152602001908152602001600020836040516101a491906103b6565b908152602001604051809103902060006101000a81548160ff0219169083151502179055507ff420b2f41bafcca7fe1b71f79b37cde1c49cc166f343dea7e41be7b38f1c4f438383836040516101fc939291906103cd565b60405180910390a1505050565b60008135905061021881610544565b92915050565b600082601f83011261022f57600080fd5b813561024261023d8261045c565b61042b565b9150808252602083016020830185838301111561025e57600080fd5b6102698382846104ef565b50505092915050565b6000813590506102818161055b565b92915050565b60008060006060848603121561029c57600080fd5b60006102aa86828701610209565b935050602084013567ffffffffffffffff8111156102c757600080fd5b6102d38682870161021e565b92505060406102e486828701610272565b9150509250925092565b6102f7816104b3565b82525050565b60006103088261048c565b6103128185610497565b93506103228185602086016104fe565b61032b81610533565b840191505092915050565b60006103418261048c565b61034b81856104a8565b935061035b8185602086016104fe565b80840191505092915050565b6000610374601383610497565b91507f536b696c6c20616c7265616479206164646564000000000000000000000000006000830152602082019050919050565b6103b0816104e5565b82525050565b60006103c28284610336565b915081905092915050565b60006060820190506103e260008301866102ee565b81810360208301526103f481856102fd565b905061040360408301846103a7565b949350505050565b6000602082019050818103600083015261042481610367565b9050919050565b6000604051905081810181811067ffffffffffffffff8211171561045257610451610531565b5b8060405250919050565b600067ffffffffffffffff82111561047757610476610531565b5b601f19601f8301169050602081019050919050565b600081519050919050565b600082825260208201905092915050565b600081905092915050565b60006104be826104c5565b9050919050565b600073ffffffffffffffffffffffffffffffffffffffff82169050919050565b6000819050919050565b82818337600083830152505050565b60005b8381101561051c578082015181840152602081019050610501565b8381111561052b576000848401525b50505050565bfe5b6000601f19601f8301169050919050565b61054d816104b3565b811461055857600080fd5b50565b610564816104e5565b811461056f57600080fd5b5056fea26469706673582212203550953ca820bc76d2ee883fe4c9945301774ef73425ffbed8602fb8a612f2ec64736f6c63430007030033",
  "linkReferences": {},
  "deployedLinkReferences": {}
}