{
  "_format": "hh-sol-artifact-1",
  "contractName": "MySkills",
  "sourceName": "contracts/MySkills.sol",
  "abi": [
    {
      "inputs": [],
      "stateMutability": "nonpayable",
      "type": "constructor"
    },
    {
      "anonymous": false,
      "inputs": [
        {
          "indexed": true,
          "internalType": "address",
          "name": "addr",
          "type": "address"
        },
        {
          "indexed": false,
          "internalType": "string",
          "name": "skill",
          "type": "string"
        },
        {
          "indexed": false,
          "internalType": "uint256",
          "name": "insertTimestamp",
          "type": "uint256"
        }
      ],
      "name": "SkillAdded",
      "type": "event"
    },
    {
      "anonymous": false,
      "inputs": [
        {
          "indexed": true,
          "internalType": "address",
          "name": "addr",
          "type": "address"
        },
        {
          "indexed": false,
          "internalType": "string",
          "name": "skill",
          "type": "string"
        },
        {
          "indexed": false,
          "internalType": "uint256",
          "name": "deleteTimestamp",
          "type": "uint256"
        }
      ],
      "name": "SkillDeleted",
      "type": "event"
    },
    {
      "inputs": [
        {
          "internalType": "string",
          "name": "name",
          "type": "string"
        },
        {
          "internalType": "uint256",
          "name": "timestamp",
          "type": "uint256"
        }
      ],
      "name": "addSkill",
      "outputs": [],
      "stateMutability": "nonpayable",
      "type": "function"
    },
    {
      "inputs": [
        {
          "internalType": "string",
          "name": "name",
          "type": "string"
        },
        {
          "internalType": "uint256",
          "name": "timestamp",
          "type": "uint256"
        }
      ],
      "name": "deleteSkill",
      "outputs": [],
      "stateMutability": "nonpayable",
      "type": "function"
    },
    {
      "inputs": [],
      "name": "getAll",
      "outputs": [
        {
          "components": [
            {
              "internalType": "string",
              "name": "name",
              "type": "string"
            },
            {
              "internalType": "uint256",
              "name": "timestamp",
              "type": "uint256"
            }
          ],
          "internalType": "struct MySkills.Skill[]",
          "name": "",
          "type": "tuple[]"
        }
      ],
      "stateMutability": "view",
      "type": "function"
    }
  ],
  "bytecode": "0x608060405234801561001057600080fd5b50336000806101000a81548173ffffffffffffffffffffffffffffffffffffffff021916908373ffffffffffffffffffffffffffffffffffffffff160217905550610eb4806100606000396000f3fe608060405234801561001057600080fd5b50600436106100415760003560e01c806353ed5143146100465780637f7a753314610064578063a99d0a9914610080575b600080fd5b61004e61009c565b60405161005b9190610ca4565b60405180910390f35b61007e60048036038101906100799190610a32565b610205565b005b61009a60048036038101906100959190610a32565b610564565b005b6060600160008060009054906101000a900473ffffffffffffffffffffffffffffffffffffffff1673ffffffffffffffffffffffffffffffffffffffff1673ffffffffffffffffffffffffffffffffffffffff168152602001908152602001600020805480602002602001604051908101604052809291908181526020016000905b828210156101fc5783829060005260206000209060020201604051806040016040529081600082018054600181600116156101000203166002900480601f0160208091040260200160405190810160405280929190818152602001828054600181600116156101000203166002900480156101da5780601f106101af576101008083540402835291602001916101da565b820191906000526020600020905b8154815290600101906020018083116101bd57829003601f168201915b505050505081526020016001820154815250508152602001906001019061011e565b50505050905090565b600260008060009054906101000a900473ffffffffffffffffffffffffffffffffffffffff1673ffffffffffffffffffffffffffffffffffffffff1673ffffffffffffffffffffffffffffffffffffffff168152602001908152602001600020826040516102739190610c8d565b908152602001604051809103902060009054906101000a900460ff166102ce576040517f08c379a00000000000000000000000000000000000000000000000000000000081526004016102c590610d16565b60405180910390fd5b6000600360008060009054906101000a900473ffffffffffffffffffffffffffffffffffffffff1673ffffffffffffffffffffffffffffffffffffffff1673ffffffffffffffffffffffffffffffffffffffff1681526020019081526020016000208360405161033e9190610c8d565b9081526020016040518091039020549050600160008060009054906101000a900473ffffffffffffffffffffffffffffffffffffffff1673ffffffffffffffffffffffffffffffffffffffff1673ffffffffffffffffffffffffffffffffffffffff16815260200190815260200160002081815481106103ba57fe5b9060005260206000209060020201600080820160006103d991906108e4565b60018201600090555050600360008060009054906101000a900473ffffffffffffffffffffffffffffffffffffffff1673ffffffffffffffffffffffffffffffffffffffff1673ffffffffffffffffffffffffffffffffffffffff168152602001908152602001600020836040516104519190610c8d565b908152602001604051809103902060009055600260008060009054906101000a900473ffffffffffffffffffffffffffffffffffffffff1673ffffffffffffffffffffffffffffffffffffffff1673ffffffffffffffffffffffffffffffffffffffff168152602001908152602001600020836040516104d19190610c8d565b908152602001604051809103902060006101000a81549060ff021916905560008054906101000a900473ffffffffffffffffffffffffffffffffffffffff1673ffffffffffffffffffffffffffffffffffffffff167f28d90da016a2f8209505e627ed0851b1f1440eac9f66d6eed3035806608275a08484604051610557929190610cc6565b60405180910390a2505050565b600260008060009054906101000a900473ffffffffffffffffffffffffffffffffffffffff1673ffffffffffffffffffffffffffffffffffffffff1673ffffffffffffffffffffffffffffffffffffffff168152602001908152602001600020826040516105d29190610c8d565b908152602001604051809103902060009054906101000a900460ff161561062e576040517f08c379a000000000000000000000000000000000000000000000000000000000815260040161062590610cf6565b60405180910390fd5b600160008060009054906101000a900473ffffffffffffffffffffffffffffffffffffffff1673ffffffffffffffffffffffffffffffffffffffff1673ffffffffffffffffffffffffffffffffffffffff168152602001908152602001600020604051806040016040528084815260200183815250908060018154018082558091505060019003906000526020600020906002020160009091909190915060008201518160000190805190602001906106e892919061092c565b5060208201518160010155505060018060008060009054906101000a900473ffffffffffffffffffffffffffffffffffffffff1673ffffffffffffffffffffffffffffffffffffffff1673ffffffffffffffffffffffffffffffffffffffff1681526020019081526020016000208054905003600360008060009054906101000a900473ffffffffffffffffffffffffffffffffffffffff1673ffffffffffffffffffffffffffffffffffffffff1673ffffffffffffffffffffffffffffffffffffffff168152602001908152602001600020836040516107c99190610c8d565b9081526020016040518091039020819055506001600260008060009054906101000a900473ffffffffffffffffffffffffffffffffffffffff1673ffffffffffffffffffffffffffffffffffffffff1673ffffffffffffffffffffffffffffffffffffffff1681526020019081526020016000208360405161084b9190610c8d565b908152602001604051809103902060006101000a81548160ff02191690831515021790555060008054906101000a900473ffffffffffffffffffffffffffffffffffffffff1673ffffffffffffffffffffffffffffffffffffffff167fab6433bd259d728b0b2bb28f04f1b5557ebe4f348f114e50654023edfd0fccd483836040516108d8929190610cc6565b60405180910390a25050565b50805460018160011615610100020316600290046000825580601f1061090a5750610929565b601f01602090049060005260206000209081019061092891906109ac565b5b50565b828054600181600116156101000203166002900490600052602060002090601f016020900481019282601f1061096d57805160ff191683800117855561099b565b8280016001018555821561099b579182015b8281111561099a57825182559160200191906001019061097f565b5b5090506109a891906109ac565b5090565b5b808211156109c55760008160009055506001016109ad565b5090565b600082601f8301126109da57600080fd5b81356109ed6109e882610d67565b610d36565b91508082526020830160208301858383011115610a0957600080fd5b610a14838284610e12565b50505092915050565b600081359050610a2c81610e67565b92915050565b60008060408385031215610a4557600080fd5b600083013567ffffffffffffffff811115610a5f57600080fd5b610a6b858286016109c9565b9250506020610a7c85828601610a1d565b9150509250929050565b6000610a928383610c32565b905092915050565b6000610aa582610da7565b610aaf8185610dca565b935083602082028501610ac185610d97565b8060005b85811015610afd5784840389528151610ade8582610a86565b9450610ae983610dbd565b925060208a01995050600181019050610ac5565b50829750879550505050505092915050565b6000610b1a82610db2565b610b248185610ddb565b9350610b34818560208601610e21565b610b3d81610e56565b840191505092915050565b6000610b5382610db2565b610b5d8185610dec565b9350610b6d818560208601610e21565b610b7681610e56565b840191505092915050565b6000610b8c82610db2565b610b968185610dfd565b9350610ba6818560208601610e21565b80840191505092915050565b6000610bbf601383610dec565b91507f536b696c6c20616c7265616479206164646564000000000000000000000000006000830152602082019050919050565b6000610bff601683610dec565b91507f536b696c6c20646f6573206e6f74206578697374732e000000000000000000006000830152602082019050919050565b60006040830160008301518482036000860152610c4f8282610b0f565b9150506020830151610c646020860182610c6f565b508091505092915050565b610c7881610e08565b82525050565b610c8781610e08565b82525050565b6000610c998284610b81565b915081905092915050565b60006020820190508181036000830152610cbe8184610a9a565b905092915050565b60006040820190508181036000830152610ce08185610b48565b9050610cef6020830184610c7e565b9392505050565b60006020820190508181036000830152610d0f81610bb2565b9050919050565b60006020820190508181036000830152610d2f81610bf2565b9050919050565b6000604051905081810181811067ffffffffffffffff82111715610d5d57610d5c610e54565b5b8060405250919050565b600067ffffffffffffffff821115610d8257610d81610e54565b5b601f19601f8301169050602081019050919050565b6000819050602082019050919050565b600081519050919050565b600081519050919050565b6000602082019050919050565b600082825260208201905092915050565b600082825260208201905092915050565b600082825260208201905092915050565b600081905092915050565b6000819050919050565b82818337600083830152505050565b60005b83811015610e3f578082015181840152602081019050610e24565b83811115610e4e576000848401525b50505050565bfe5b6000601f19601f8301169050919050565b610e7081610e08565b8114610e7b57600080fd5b5056fea2646970667358221220fbc5d7785605a9196d2160959bc87a4ce71c2aedd93d502845234fb85854ed1a64736f6c63430007030033",
  "linkReferences": {},
  "deployedLinkReferences": {}
}